:100000000C9470000C94D0040C94A9040C949800E7
:100010000C9498000C9498000C9498000C94980000
:100020000C9498000C9498000C9498000C949800F0
:100030000C9498000C9498000C9498000C949800E0
:100040000C945F040C9498000C942D040C940704F9
:100050000C9498000C9498000C9498000C949800C0
:100060000C9498000C9498007206750678067B062E
:100070007E0681068406F506F806FB06FE060107E5
:1000800004070707000000002300260029000000E5
:100090000008000201000003040700000000000047
:1000A000000000000000250028002B0000000000D8
:1000B000240027002A0004040404040404040202A7
:1000C00002020202030303030303010204081020D7
:1000D0004080010204081020010204081020620779
:1000E00011241FBECFEFD8E0DEBFCDBF11E0A0E0EE
:1000F000B1E0EAE2F2E102C005900D92A63AB10742
:10010000D9F726E0A6EAB1E001C01D92A336B207F6
:10011000E1F710E0C0E7D0E004C02197FE010E94A3
:10012000DB07CF36D107C9F70E94F7040C941309F7
:100130000C94000090E0FC01E653FF4F2491FC0179
:10014000EA54FF4F8491882399F090E0880F991F1B
:10015000FC01E455FF4FA591B491FC01EE55FF4F12
:10016000859194918FB7F894EC91E22BEC938FBF2B
:100170000895CF93BC01A0E0B0E040E050E0C0E4BF
:100180006A177B0724F1E2ECF1E0119285E0E13C93
:10019000F807D9F7C0937C0080917A00806480933F
:1001A0007A0080917A0086FDFCCF209178008091C2
:1001B000790030E0382BF901EE53FE4F90819F5FBC
:1001C00090839F3F39F7420F531F1196D9CF6F5F2E
:1001D0007F4FCA010E94A507CB01CF910895CF920E
:1001E000DF92EF92FF920F931F93CF93DF936C01F7
:1001F0007A018B01C0E0D0E0CE15DF0589F0D8018F
:100200006D918D01D601ED91FC910190F081E02D71
:10021000C6010995892B11F47E0102C02196ECCF0D
:10022000C701DF91CF911F910F91FF90EF90DF9069
:10023000CF900895089580E090E00895FC01538DDB
:10024000448D252F30E0842F90E0821B930B5417B0
:1002500010F0CF96089501970895FC01918D828D3D
:10026000981761F0828DDF01A80FB11D5D968C910A
:10027000928D9F5F9F73928F90E008958FEF9FEF15
:100280000895FC01918D828D981731F0828DE80FD1
:10029000F11D858D90E008958FEF9FEF0895FC018B
:1002A000918D228D892F90E0805C9F4F821B910958
:1002B0008F739927089582EC95E00E944F0121E009
:1002C000892B09F420E0822F0895FC01848DDF0141
:1002D000A80FB11DA35ABF4F2C91848D90E00196B9
:1002E0008F739927848FA689B7892C93A089B189A8
:1002F0008C9180648C93938D848D981306C00288B2
:10030000F389E02D80818F7D80830895EF92FF92A5
:100310000F931F93CF93DF93EC0181E0888F9B8D28
:100320008C8D981305C0E889F989808185FD24C0EA
:10033000F62E0B8D10E00F5F1F4F0F731127E02E6D
:100340008C8DE8120CC00FB607FCFACFE889F9894A
:10035000808185FFF5CFCE010E946501F1CF8B8DA5
:10036000FE01E80FF11DE35AFF4FF0820B8FEA897F
:10037000FB898081806207C0EE89FF896083E889FC
:10038000F98980818064808381E090E0DF91CF9162
:100390001F910F91FF90EF900895CF93DF93EC01A1
:1003A000888D8823C9F0EA89FB89808185FD05C095
:1003B000A889B9898C9186FD0FC00FB607FCF5CFCF
:1003C000808185FFF2CFA889B9898C9185FFEDCF17
:1003D000CE010E946501E7CFDF91CF91089580E0C3
:1003E00090E0892B29F00E945B0181110C940000A0
:1003F0000895833081F028F4813099F08230A1F0A3
:1004000008958730A9F08830B9F08430D1F4809114
:1004100080008F7D03C0809180008F778093800063
:10042000089584B58F7702C084B58F7D84BD08950B
:100430008091B0008F7703C08091B0008F7D809352
:10044000B00008951F93CF93DF93282F30E0F90178
:10045000E257FF4F8491F901E653FF4FD491F90120
:10046000EA54FF4FC491CC23C9F0162F81110E948A
:10047000F901EC2FF0E0EE0FFF1FEE55FF4FA591B5
:10048000B4918FB7F894111105C09C91ED2FE095B0
:10049000E92302C0EC91ED2BEC938FBFDF91CF915C
:1004A0001F9108953FB7F8948091AF019091B001EA
:1004B000A091B101B091B20126B5A89B05C02F3F14
:1004C00019F00196A11DB11D3FBFBA2FA92F982F7A
:1004D0008827820F911DA11DB11DBC01CD0142E0F5
:1004E000660F771F881F991F4A95D1F70895CF92FD
:1004F000DF92EF92FF920E9452026B017C010E94F8
:1005000052026093B7017093B8018093B901909340
:10051000BA018091BB019091BC01A091BD01B09145
:10052000BE010196A11DB11D8093BB019093BC013A
:10053000A093BD01B093BE01C092A601D092A701C5
:10054000E092A801F092A901FF90EF90DF90CF9088
:1005500008958F929F92AF92BF92CF92DF92EF92C7
:10056000FF926B017C010E9452024B015C01C1149D
:10057000D104E104F104F1F00E945202DC01CB014C
:1005800088199909AA09BB09883E9340A105B105BC
:1005900070F321E0C21AD108E108F10888EE880E54
:1005A00083E0981EA11CB11CC114D104E104F10424
:1005B00019F7DDCFFF90EF90DF90CF90BF90AF9015
:1005C0009F908F9008950895009769F0FC01019025
:1005D0000020E9F73197AF01481B590BBC0182ECB1
:1005E00095E00C94EF0080E090E00895CF93DF93C6
:1005F0000E94E402EC018AE291E00E94E4028C0F86
:100600009D1FDF91CF9108958F929F92AF92BF92DD
:100610000F931F93CF93DF93CDB7DEB7A1970FB69C
:10062000F894DEBF0FBECDBF19A2423008F44AE0F5
:100630008E010F5D1F4F842E912CA12CB12CA50192
:1006400094010E94B907E62FB901CA0101501109AE
:10065000EA3014F4E05D01C0E95CD801EC93232B8F
:10066000242B252B61F7C8010E94E402A1960FB646
:10067000F894DEBF0FBECDBFDF91CF911F910F91D8
:10068000BF90AF909F908F900895CF92DF92EF929E
:10069000FF92CF93DF936C01990FEE08FF08F7FEEE
:1006A0001AC0E091C205F091C3050190F081E02DE0
:1006B0006DE282EC95E00995EC0166277727CB0186
:1006C0006C197D098E099F094AE00E9404037C0190
:1006D000EC0EFD1E06C04AE0C701B6010E940403ED
:1006E0007C018AE291E00E94E4028E0D9F1DDF9161
:1006F000CF91FF90EF90DF90CF9008950F931F93CD
:10070000CF93DF938C0160E085E00E942202C7E076
:10071000D0E01127B8010C2E02C0759567950A9498
:10072000E2F76170772783E00E94220261E084E0B3
:100730000E94220260E084E00E942202219750F78A
:1007400061E085E0DF91CF911F910F910C9422021F
:100750000E940E09EF92FF920F931F93CF93DF93A6
:10076000EC017C0100E010E0C8010E948F07F70156
:1007700081937F010F5F1F4F0F311105A9F788810A
:10078000811139C080E791E09C838B8381E090E008
:100790009E838D838FEF93E098878F831A861986C7
:1007A00080ED91E09C878B8782E090E09E878D872B
:1007B00086E692E0988B8F8783E090E09A8B898B16
:1007C0008BEE92E09C8B8B8B84E090E09E8B8D8BEC
:1007D0008DE793E0988F8F8B85E090E09A8F898FDB
:1007E00080EC93E09C8F8B8F86E090E09E8F8D8FC6
:1007F0008DE291E002C082E491E00E94F6028881DD
:10080000DF91CF911F910F91FF90EF9008951F926C
:100810000F920FB60F9211242F933F934F935F9334
:100820006F937F938F939F93AF93BF93EF93FF93B8
:1008300082EC95E00E946501FF91EF91BF91AF912D
:100840009F918F917F916F915F914F913F912F91E8
:100850000F900FBE0F901F9018951F920F920FB61A
:100860000F9211242F938F939F93EF93FF93E09117
:10087000D205F091D3058081E091D805F091D9059A
:1008800082FD12C090818091DB058F5F8F73209174
:10089000DC05821751F0E091DB05F0E0EE53FA4FF2
:1008A000958F8093DB0501C08081FF91EF919F912F
:1008B0008F912F910F900FBE0F901F9018951F9240
:1008C0000F920FB60F9211242F933F938F939F9304
:1008D000AF93BF938091AB019091AC01A091AD011A
:1008E000B091AE013091AA0123E0230F2D3720F4FF
:1008F0000196A11DB11D05C026E8230F0296A11D7A
:10090000B11D2093AA018093AB019093AC01A093F9
:10091000AD01B093AE018091AF019091B001A09173
:10092000B101B091B2010196A11DB11D8093AF013B
:100930009093B001A093B101B093B201BF91AF9178
:100940009F918F913F912F910F900FBE0F901F900D
:1009500018951F920F920FB60F9211242F933F9369
:100960004F935F936F937F938F939F93AF93BF93B7
:10097000EF93FF93E0910201F09103010995FF913C
:10098000EF91BF91AF919F918F917F916F915F9107
:100990004F913F912F910F900FBE0F901F90189580
:1009A0001F920F920FB60F9211242F933F934F93E4
:1009B0005F936F937F938F939F93AF93BF93EF93C7
:1009C000FF93E0910001F09101010995FF91EF91F2
:1009D000BF91AF919F918F917F916F915F914F9157
:1009E0003F912F910F900FBE0F901F901895CF93AE
:1009F000DF93CDB7DEB760970FB6F894DEBF0FBEBA
:100A0000CDBF789484B5826084BD84B5816084BD97
:100A100085B5826085BD85B5816085BD80916E009C
:100A2000816080936E0010928100809181008260CD
:100A3000809381008091810081608093810080910A
:100A400080008160809380008091B10084608093F9
:100A5000B1008091B00081608093B00080917A00F5
:100A6000846080937A0080917A00826080937A001B
:100A700080917A00816080937A0080917A0080680A
:100A800080937A001092C100E091D205F091D305D5
:100A900082E08083E091CE05F091CF051082E09155
:100AA000D005F091D1058FEC80831092DA05E091AA
:100AB000D605F091D70586E08083E091D405F091CA
:100AC000D505808180618083E091D405F091D505C2
:100AD000808188608083E091D405F091D505808184
:100AE00080688083E091D405F091D50580818F7D69
:100AF000808384E00E949A0085E00E949A0083E04F
:100B00000E949A008FEF90E00E947E0366E970E0F9
:100B100080E090E00E94A90200E010E0EE24E3945F
:100B2000F12CC701002E02C0880F991F0A94E2F72A
:100B30000E947E0366E970E080E090E00E94A902D6
:100B40000F5F1F4F0830110561F78FE190E00E94A1
:100B5000E1078C01892B59F0E2ECF1E0119285E07C
:100B6000E13CF807D9F7C8010E94AA0302C000E0DF
:100B700010E01093C0010093BF01012BC9F489E577
:100B800091E00E94F6028FEF90E00E947E0366E9FA
:100B900070E080E090E00E94A9028CE090E00E946A
:100BA0007E0366E970E080E090E00E94A902EBCF4E
:100BB00087E792E0909301018093000180916900A2
:100BC000836080936900E89A08E010E057E9E52E19
:100BD00050E0F52E63EDC62E60E0D62E7FEBA72EFB
:100BE00070E0B72E992493948091C101811118C0AF
:100BF000F7018491F6017490F5018490882081F0CA
:100C000081110E94F901882D90E0880F991F8C575F
:100C10009F4FFC01A591B4918C91782209F04BC1B2
:100C20008FEF90E00E947E0364E670E080E090E049
:100C30000E94A90281E090E00E947E0364E670E0D9
:100C400080E090E00E94A9020150110909F0CCCF88
:100C500030E4432E32E4532E3FE0632E712C80911A
:100C6000C101882309F488C00091BF011091C0011F
:100C700083E791E00E94F602EAE0F1E0DE011196DE
:100C80008EE001900D928A95E1F7CE0101964C011C
:100C9000188B0F8718019CE1290E311C7801F40193
:100CA000C190D1904F01C6010E9445032FE0A22EB2
:100CB000B12C64E670E080E090E00E94A9028FEF22
:100CC00090E00E947E0364E670E080E090E00E9485
:100CD000A902F7E0CF16D104D8F4F601EC5CFF4F7F
:100CE0000C94DB0782E190E011C082EF90E00EC02F
:100CF00089E490E00BC081E690E008C083E390E0D7
:100D000005C085E290E002C085E090E00E947E038D
:100D100081E0A81AB10869F684E190E00E94B90068
:100D2000F701D682C582948383830E944503F4E051
:100D3000EF0EF11CE214F30409F0B1CF8824839480
:100D4000F8018082E12CF12CEF85F8896191F88B14
:100D5000EF87C7010E949707FFEFEF1AFF0A8FE1A5
:100D6000E816F10489F783E891E00E94F602C801D1
:100D70000E94AA031092C1010091BF011091C0010D
:100D800080E090E00E94B900F80120E030E0BC0172
:100D90006C537109CC96438154816417750768F4CC
:100DA0004817590750F4220F331F220F331FF80141
:100DB000E20FF31FE580F68009C02F5F3F4F3496A6
:100DC0002730310541F7EE24EA94FE2CF8018181A9
:100DD0009281E816F90611F1F7E0EF16F104D8F464
:100DE000F701E55CFF4F0C94DB0782E190E011C056
:100DF00082EF90E00EC089E490E00BC081E690E0C5
:100E000008C083E390E005C085E290E002C085E081
:100E100090E00E947E03F801F282E182F894209132
:100E2000BB013091BC014091BD015091BE011092B7
:100E3000BB011092BC011092BD011092BE01C09086
:100E4000B701D090B801E090B901F090BA01789460
:100E5000211531054105510509F18091B3019091AA
:100E6000B401A091B501B091B60146015701881AAD
:100E7000990AAA0ABB0AC501B4010E94B907C301B5
:100E8000B2010E94B907CA01B901C092B301D09260
:100E9000B401E092B501F092B60103C060E070E0E9
:100EA000CB014AE00E9404038AE291E00E94E4023E
:100EB0000E94EF01D4CE81E991E00E94F602909267
:100EC000C101AECEE2ECF5E01382128288EE93E02F
:100ED000A0E0B0E084839583A683B7838CE191E0A2
:100EE0009183808385EC90E09587848784EC90E003
:100EF0009787868780EC90E0918B808B81EC90E0E7
:100F0000938B828B82EC90E0958B848B86EC90E0C7
:100F1000978B868B118E128E138E148E0895F999ED
:100F2000FECF92BD81BDF89A992780B50895262FEE
:100F3000F999FECF1FBA92BD81BD20BD0FB6F894BE
:100F4000FA9AF99A0FBE01960895AA1BBB1B51E1AC
:100F500007C0AA1FBB1FA617B70710F0A61BB70B29
:100F6000881F991F5A95A9F780959095BC01CD01CE
:100F70000895A1E21A2EAA1BBB1BFD010DC0AA1FDA
:100F8000BB1FEE1FFF1FA217B307E407F50720F0F2
:100F9000A21BB30BE40BF50B661F771F881F991F6D
:100FA0001A9469F760957095809590959B01AC01B6
:100FB000BD01CF010895EE0FFF1F0590F491E02DC4
:100FC0000994CF93DF938230910510F482E090E092
:100FD000E0916106F091620620E030E0C0E0D0E0F0
:100FE000309711F14081518148175907C0F04817D7
:100FF000590761F482819381209719F09B838A833A
:101000002BC0909362068093610626C0211531059E
:1010100019F04217530718F49A01BE01DF01EF01DE
:101020000280F381E02DDCCF2115310509F1281B69
:10103000390B2430310590F412968D919C911397C1
:101040006115710521F0FB019383828304C09093A5
:10105000620680936106FD01329644C0FD01E20FF5
:10106000F31F81939193225031092D933C933AC001
:1010700020915F0630916006232B41F420910601F8
:10108000309107013093600620935F0620910401A0
:10109000309105012115310541F42DB73EB740913E
:1010A000080150910901241B350BE0915F06F09176
:1010B0006006E217F307A0F42E1B3F0B2817390731
:1010C00078F0AC014E5F5F4F2417350748F04E0FA4
:1010D0005F1F5093600640935F068193919302C017
:1010E000E0E0F0E0CF01DF91CF9108950F931F93DF
:1010F000CF93DF93009709F48CC0FC0132971382E1
:10110000128200916106109162060115110581F4A9
:1011100020813181820F931F20915F0630916006FC
:101120002817390779F5F0936006E0935F0671C0E0
:10113000D80140E050E0AE17BF0750F412962D9151
:101140003C911397AD012115310509F1D901F3CF78
:101150009D01DA013383228360817181860F971F9D
:101160008217930769F4EC0128813981260F371F14
:101170002E5F3F4F318320838A819B8193838283BB
:10118000452B29F4F0936206E093610642C0139662
:10119000FC93EE931297ED01499159919E01240F12
:1011A000351FE217F30771F480819181840F951F39
:1011B000029611969C938E938281938113969C93B1
:1011C0008E931297E0E0F0E0D80112968D919C91F9
:1011D0001397009719F0F8018C01F6CF8D919C912F
:1011E00098012E5F3F4F820F931F20915F06309131
:1011F00060062817390769F4309729F410926206BF
:101200001092610602C0138212821093600600934E
:101210005F06DF91CF911F910F91089581E090E0DB
:0A122000F8940C941309F894FFCF22
:10122A00E302E302000063068000010000000200FE
:10123A000300040005000600000000008601EF001C
:10124A001E01CD014F012D0141010D0A00446566C1
:10125A0061756C742067656172696E67206C6F6175
:10126A00640053617665642067656172696E672000
:10127A0064657465637465640047656172426F787A
:10128A0020696E697469616C697A65206661696C46
:10129A0065640053746172742063616C696272617F
:1012AA00746500456E642063616C6962726174657D
:1012BA000043616C6962726174696F6E206D6F645C
:0612CA0065206F6E0000BC
:00000001FF
